{
  "_format": "hh-sol-artifact-1",
  "contractName": "LingoToken",
  "sourceName": "contracts/LingoToken.sol",
  "abi": [
    {
      "inputs": [
        {
          "internalType": "uint256",
          "name": "_initialSupply",
          "type": "uint256"
        },
        {
          "internalType": "address",
          "name": "_treasuryAddress",
          "type": "address"
        },
        {
          "internalType": "uint256",
          "name": "_txnFee",
          "type": "uint256"
        }
      ],
      "stateMutability": "nonpayable",
      "type": "constructor"
    },
    {
      "inputs": [],
      "name": "AccessControlBadConfirmation",
      "type": "error"
    },
    {
      "inputs": [
        {
          "internalType": "address",
          "name": "account",
          "type": "address"
        },
        {
          "internalType": "bytes32",
          "name": "neededRole",
          "type": "bytes32"
        }
      ],
      "name": "AccessControlUnauthorizedAccount",
      "type": "error"
    },
    {
      "inputs": [
        {
          "internalType": "address",
          "name": "spender",
          "type": "address"
        },
        {
          "internalType": "uint256",
          "name": "allowance",
          "type": "uint256"
        },
        {
          "internalType": "uint256",
          "name": "needed",
          "type": "uint256"
        }
      ],
      "name": "ERC20InsufficientAllowance",
      "type": "error"
    },
    {
      "inputs": [
        {
          "internalType": "address",
          "name": "sender",
          "type": "address"
        },
        {
          "internalType": "uint256",
          "name": "balance",
          "type": "uint256"
        },
        {
          "internalType": "uint256",
          "name": "needed",
          "type": "uint256"
        }
      ],
      "name": "ERC20InsufficientBalance",
      "type": "error"
    },
    {
      "inputs": [
        {
          "internalType": "address",
          "name": "approver",
          "type": "address"
        }
      ],
      "name": "ERC20InvalidApprover",
      "type": "error"
    },
    {
      "inputs": [
        {
          "internalType": "address",
          "name": "receiver",
          "type": "address"
        }
      ],
      "name": "ERC20InvalidReceiver",
      "type": "error"
    },
    {
      "inputs": [
        {
          "internalType": "address",
          "name": "sender",
          "type": "address"
        }
      ],
      "name": "ERC20InvalidSender",
      "type": "error"
    },
    {
      "inputs": [
        {
          "internalType": "address",
          "name": "spender",
          "type": "address"
        }
      ],
      "name": "ERC20InvalidSpender",
      "type": "error"
    },
    {
      "inputs": [],
      "name": "FeesTooHigh",
      "type": "error"
    },
    {
      "inputs": [],
      "name": "MaxSupplyExceeded",
      "type": "error"
    },
    {
      "inputs": [],
      "name": "VestingAlreadySet",
      "type": "error"
    },
    {
      "inputs": [],
      "name": "ZeroAddress",
      "type": "error"
    },
    {
      "anonymous": false,
      "inputs": [
        {
          "indexed": true,
          "internalType": "address",
          "name": "owner",
          "type": "address"
        },
        {
          "indexed": true,
          "internalType": "address",
          "name": "spender",
          "type": "address"
        },
        {
          "indexed": false,
          "internalType": "uint256",
          "name": "value",
          "type": "uint256"
        }
      ],
      "name": "Approval",
      "type": "event"
    },
    {
      "anonymous": false,
      "inputs": [
        {
          "indexed": true,
          "internalType": "bytes32",
          "name": "role",
          "type": "bytes32"
        },
        {
          "indexed": true,
          "internalType": "bytes32",
          "name": "previousAdminRole",
          "type": "bytes32"
        },
        {
          "indexed": true,
          "internalType": "bytes32",
          "name": "newAdminRole",
          "type": "bytes32"
        }
      ],
      "name": "RoleAdminChanged",
      "type": "event"
    },
    {
      "anonymous": false,
      "inputs": [
        {
          "indexed": true,
          "internalType": "bytes32",
          "name": "role",
          "type": "bytes32"
        },
        {
          "indexed": true,
          "internalType": "address",
          "name": "account",
          "type": "address"
        },
        {
          "indexed": true,
          "internalType": "address",
          "name": "sender",
          "type": "address"
        }
      ],
      "name": "RoleGranted",
      "type": "event"
    },
    {
      "anonymous": false,
      "inputs": [
        {
          "indexed": true,
          "internalType": "bytes32",
          "name": "role",
          "type": "bytes32"
        },
        {
          "indexed": true,
          "internalType": "address",
          "name": "account",
          "type": "address"
        },
        {
          "indexed": true,
          "internalType": "address",
          "name": "sender",
          "type": "address"
        }
      ],
      "name": "RoleRevoked",
      "type": "event"
    },
    {
      "anonymous": false,
      "inputs": [
        {
          "indexed": true,
          "internalType": "address",
          "name": "from",
          "type": "address"
        },
        {
          "indexed": true,
          "internalType": "address",
          "name": "to",
          "type": "address"
        },
        {
          "indexed": false,
          "internalType": "uint256",
          "name": "value",
          "type": "uint256"
        }
      ],
      "name": "Transfer",
      "type": "event"
    },
    {
      "anonymous": false,
      "inputs": [
        {
          "indexed": false,
          "internalType": "uint256",
          "name": "fee",
          "type": "uint256"
        }
      ],
      "name": "TransferFeeUpdated",
      "type": "event"
    },
    {
      "anonymous": false,
      "inputs": [
        {
          "indexed": false,
          "internalType": "address",
          "name": "account",
          "type": "address"
        }
      ],
      "name": "TreasuryWalletUpdated",
      "type": "event"
    },
    {
      "inputs": [],
      "name": "DEFAULT_ADMIN_ROLE",
      "outputs": [
        {
          "internalType": "bytes32",
          "name": "",
          "type": "bytes32"
        }
      ],
      "stateMutability": "view",
      "type": "function"
    },
    {
      "inputs": [],
      "name": "EXTERNAL_ROLE",
      "outputs": [
        {
          "internalType": "bytes32",
          "name": "",
          "type": "bytes32"
        }
      ],
      "stateMutability": "view",
      "type": "function"
    },
    {
      "inputs": [],
      "name": "INTERNAL_ROLE",
      "outputs": [
        {
          "internalType": "bytes32",
          "name": "",
          "type": "bytes32"
        }
      ],
      "stateMutability": "view",
      "type": "function"
    },
    {
      "inputs": [],
      "name": "MINTER_ROLE",
      "outputs": [
        {
          "internalType": "bytes32",
          "name": "",
          "type": "bytes32"
        }
      ],
      "stateMutability": "view",
      "type": "function"
    },
    {
      "inputs": [
        {
          "internalType": "address[]",
          "name": "_addr",
          "type": "address[]"
        }
      ],
      "name": "addExternalAccess",
      "outputs": [],
      "stateMutability": "nonpayable",
      "type": "function"
    },
    {
      "inputs": [
        {
          "internalType": "address[]",
          "name": "_addr",
          "type": "address[]"
        }
      ],
      "name": "addInternalAccess",
      "outputs": [],
      "stateMutability": "nonpayable",
      "type": "function"
    },
    {
      "inputs": [
        {
          "internalType": "address",
          "name": "owner",
          "type": "address"
        },
        {
          "internalType": "address",
          "name": "spender",
          "type": "address"
        }
      ],
      "name": "allowance",
      "outputs": [
        {
          "internalType": "uint256",
          "name": "",
          "type": "uint256"
        }
      ],
      "stateMutability": "view",
      "type": "function"
    },
    {
      "inputs": [
        {
          "internalType": "address",
          "name": "spender",
          "type": "address"
        },
        {
          "internalType": "uint256",
          "name": "value",
          "type": "uint256"
        }
      ],
      "name": "approve",
      "outputs": [
        {
          "internalType": "bool",
          "name": "",
          "type": "bool"
        }
      ],
      "stateMutability": "nonpayable",
      "type": "function"
    },
    {
      "inputs": [
        {
          "internalType": "address",
          "name": "account",
          "type": "address"
        }
      ],
      "name": "balanceOf",
      "outputs": [
        {
          "internalType": "uint256",
          "name": "",
          "type": "uint256"
        }
      ],
      "stateMutability": "view",
      "type": "function"
    },
    {
      "inputs": [
        {
          "internalType": "uint256",
          "name": "value",
          "type": "uint256"
        }
      ],
      "name": "burn",
      "outputs": [],
      "stateMutability": "nonpayable",
      "type": "function"
    },
    {
      "inputs": [
        {
          "internalType": "address",
          "name": "account",
          "type": "address"
        },
        {
          "internalType": "uint256",
          "name": "value",
          "type": "uint256"
        }
      ],
      "name": "burnFrom",
      "outputs": [],
      "stateMutability": "nonpayable",
      "type": "function"
    },
    {
      "inputs": [],
      "name": "decimals",
      "outputs": [
        {
          "internalType": "uint8",
          "name": "",
          "type": "uint8"
        }
      ],
      "stateMutability": "view",
      "type": "function"
    },
    {
      "inputs": [
        {
          "internalType": "bytes32",
          "name": "role",
          "type": "bytes32"
        }
      ],
      "name": "getRoleAdmin",
      "outputs": [
        {
          "internalType": "bytes32",
          "name": "",
          "type": "bytes32"
        }
      ],
      "stateMutability": "view",
      "type": "function"
    },
    {
      "inputs": [
        {
          "internalType": "bytes32",
          "name": "role",
          "type": "bytes32"
        },
        {
          "internalType": "address",
          "name": "account",
          "type": "address"
        }
      ],
      "name": "grantRole",
      "outputs": [],
      "stateMutability": "nonpayable",
      "type": "function"
    },
    {
      "inputs": [
        {
          "internalType": "bytes32",
          "name": "role",
          "type": "bytes32"
        },
        {
          "internalType": "address",
          "name": "account",
          "type": "address"
        }
      ],
      "name": "hasRole",
      "outputs": [
        {
          "internalType": "bool",
          "name": "",
          "type": "bool"
        }
      ],
      "stateMutability": "view",
      "type": "function"
    },
    {
      "inputs": [
        {
          "internalType": "address",
          "name": "to",
          "type": "address"
        },
        {
          "internalType": "uint256",
          "name": "amount",
          "type": "uint256"
        }
      ],
      "name": "mint",
      "outputs": [],
      "stateMutability": "nonpayable",
      "type": "function"
    },
    {
      "inputs": [],
      "name": "name",
      "outputs": [
        {
          "internalType": "string",
          "name": "",
          "type": "string"
        }
      ],
      "stateMutability": "view",
      "type": "function"
    },
    {
      "inputs": [
        {
          "internalType": "bytes32",
          "name": "role",
          "type": "bytes32"
        },
        {
          "internalType": "address",
          "name": "callerConfirmation",
          "type": "address"
        }
      ],
      "name": "renounceRole",
      "outputs": [],
      "stateMutability": "nonpayable",
      "type": "function"
    },
    {
      "inputs": [
        {
          "internalType": "address[]",
          "name": "_addr",
          "type": "address[]"
        }
      ],
      "name": "revokeAccess",
      "outputs": [],
      "stateMutability": "nonpayable",
      "type": "function"
    },
    {
      "inputs": [
        {
          "internalType": "bytes32",
          "name": "role",
          "type": "bytes32"
        },
        {
          "internalType": "address",
          "name": "account",
          "type": "address"
        }
      ],
      "name": "revokeRole",
      "outputs": [],
      "stateMutability": "nonpayable",
      "type": "function"
    },
    {
      "inputs": [
        {
          "internalType": "uint256",
          "name": "fee",
          "type": "uint256"
        }
      ],
      "name": "setTransferFee",
      "outputs": [],
      "stateMutability": "nonpayable",
      "type": "function"
    },
    {
      "inputs": [
        {
          "internalType": "address",
          "name": "account",
          "type": "address"
        }
      ],
      "name": "setTreasuryWalletAddress",
      "outputs": [],
      "stateMutability": "nonpayable",
      "type": "function"
    },
    {
      "inputs": [
        {
          "internalType": "address",
          "name": "account",
          "type": "address"
        }
      ],
      "name": "setVestingContractAddress",
      "outputs": [],
      "stateMutability": "nonpayable",
      "type": "function"
    },
    {
      "inputs": [
        {
          "internalType": "bytes4",
          "name": "interfaceId",
          "type": "bytes4"
        }
      ],
      "name": "supportsInterface",
      "outputs": [
        {
          "internalType": "bool",
          "name": "",
          "type": "bool"
        }
      ],
      "stateMutability": "view",
      "type": "function"
    },
    {
      "inputs": [],
      "name": "symbol",
      "outputs": [
        {
          "internalType": "string",
          "name": "",
          "type": "string"
        }
      ],
      "stateMutability": "view",
      "type": "function"
    },
    {
      "inputs": [],
      "name": "totalSupply",
      "outputs": [
        {
          "internalType": "uint256",
          "name": "",
          "type": "uint256"
        }
      ],
      "stateMutability": "view",
      "type": "function"
    },
    {
      "inputs": [
        {
          "internalType": "address",
          "name": "to",
          "type": "address"
        },
        {
          "internalType": "uint256",
          "name": "amount",
          "type": "uint256"
        }
      ],
      "name": "transfer",
      "outputs": [
        {
          "internalType": "bool",
          "name": "",
          "type": "bool"
        }
      ],
      "stateMutability": "nonpayable",
      "type": "function"
    },
    {
      "inputs": [],
      "name": "transferFee",
      "outputs": [
        {
          "internalType": "uint256",
          "name": "",
          "type": "uint256"
        }
      ],
      "stateMutability": "view",
      "type": "function"
    },
    {
      "inputs": [
        {
          "internalType": "address",
          "name": "from",
          "type": "address"
        },
        {
          "internalType": "address",
          "name": "to",
          "type": "address"
        },
        {
          "internalType": "uint256",
          "name": "amount",
          "type": "uint256"
        }
      ],
      "name": "transferFrom",
      "outputs": [
        {
          "internalType": "bool",
          "name": "",
          "type": "bool"
        }
      ],
      "stateMutability": "nonpayable",
      "type": "function"
    },
    {
      "inputs": [],
      "name": "treasuryWallet",
      "outputs": [
        {
          "internalType": "address",
          "name": "",
          "type": "address"
        }
      ],
      "stateMutability": "view",
      "type": "function"
    },
    {
      "inputs": [],
      "name": "vestingContract",
      "outputs": [
        {
          "internalType": "address",
          "name": "",
          "type": "address"
        }
      ],
      "stateMutability": "view",
      "type": "function"
    }
  ],
  "bytecode": "0x60806040523480156200001157600080fd5b506040516200340038038062003400833981810160405281019062000037919062000a84565b6040518060400160405280600581526020017f4c696e676f0000000000000000000000000000000000000000000000000000008152506040518060400160405280600581526020017f4c494e474f0000000000000000000000000000000000000000000000000000008152508160039081620000b4919062000d50565b508060049081620000c6919062000d50565b505050620000ed6000801b620000e16200049560201b60201c565b6200049d60201b60201c565b50600073ffffffffffffffffffffffffffffffffffffffff168273ffffffffffffffffffffffffffffffffffffffff160362000155576040517fd92e233d00000000000000000000000000000000000000000000000000000000815260040160405180910390fd5b81600860006101000a81548173ffffffffffffffffffffffffffffffffffffffff021916908373ffffffffffffffffffffffffffffffffffffffff1602179055507f97c79b3848e51f57983ac89e4403452655c8d83ceba8199011de63a74f60d1a782604051620001c7919062000e48565b60405180910390a16b033b2e3c9fd0803ce800000083111562000216576040517f8a164f6300000000000000000000000000000000000000000000000000000000815260040160405180910390fd5b620002376200022a6200049560201b60201c565b84620005a160201b60201c565b62000248816200062e60201b60201c565b6000600367ffffffffffffffff81111562000268576200026762000aeb565b5b604051908082528060200260200182016040528015620002975781602001602082028036833780820191505090505b509050620002aa6200049560201b60201c565b81600081518110620002c157620002c062000e65565b5b602002602001019073ffffffffffffffffffffffffffffffffffffffff16908173ffffffffffffffffffffffffffffffffffffffff1681525050600860009054906101000a900473ffffffffffffffffffffffffffffffffffffffff168160018151811062000335576200033462000e65565b5b602002602001019073ffffffffffffffffffffffffffffffffffffffff16908173ffffffffffffffffffffffffffffffffffffffff1681525050308160028151811062000387576200038662000e65565b5b602002602001019073ffffffffffffffffffffffffffffffffffffffff16908173ffffffffffffffffffffffffffffffffffffffff1681525050620004027f4053bb3095634c58af32ef13d61eb0d9abd89281e8edd3a18203e4a88f07b267620003f66200049560201b60201c565b6200049d60201b60201c565b50620004577f4053bb3095634c58af32ef13d61eb0d9abd89281e8edd3a18203e4a88f07b267600860009054906101000a900473ffffffffffffffffffffffffffffffffffffffff166200049d60201b60201c565b506200048a7f4053bb3095634c58af32ef13d61eb0d9abd89281e8edd3a18203e4a88f07b267306200049d60201b60201c565b505050505062000fb1565b600033905090565b6000620004b18383620006c460201b60201c565b620005965760016005600085815260200190815260200160002060000160008473ffffffffffffffffffffffffffffffffffffffff1673ffffffffffffffffffffffffffffffffffffffff16815260200190815260200160002060006101000a81548160ff021916908315150217905550620005326200049560201b60201c565b73ffffffffffffffffffffffffffffffffffffffff168273ffffffffffffffffffffffffffffffffffffffff16847f2f8788117e7eff1d82e926ec794901d17c78024a50270940304540a733656f0d60405160405180910390a4600190506200059b565b600090505b92915050565b600073ffffffffffffffffffffffffffffffffffffffff168273ffffffffffffffffffffffffffffffffffffffff1603620006165760006040517fec442f050000000000000000000000000000000000000000000000000000000081526004016200060d919062000e48565b60405180910390fd5b6200062a600083836200072f60201b60201c565b5050565b6000801b62000643816200095f60201b60201c565b6101f482111562000680576040517fc9034e1800000000000000000000000000000000000000000000000000000000815260040160405180910390fd5b816006819055507ff9f635b7cf851af6071aaf78ef8a5f752dc52f19d556fea4512b0c2ad4baea7282604051620006b8919062000ea5565b60405180910390a15050565b60006005600084815260200190815260200160002060000160008373ffffffffffffffffffffffffffffffffffffffff1673ffffffffffffffffffffffffffffffffffffffff16815260200190815260200160002060009054906101000a900460ff16905092915050565b600073ffffffffffffffffffffffffffffffffffffffff168373ffffffffffffffffffffffffffffffffffffffff16036200078557806002600082825462000778919062000ef1565b925050819055506200085b565b60008060008573ffffffffffffffffffffffffffffffffffffffff1673ffffffffffffffffffffffffffffffffffffffff1681526020019081526020016000205490508181101562000814578381836040517fe450d38c0000000000000000000000000000000000000000000000000000000081526004016200080b9392919062000f2c565b60405180910390fd5b8181036000808673ffffffffffffffffffffffffffffffffffffffff1673ffffffffffffffffffffffffffffffffffffffff16815260200190815260200160002081905550505b600073ffffffffffffffffffffffffffffffffffffffff168273ffffffffffffffffffffffffffffffffffffffff1603620008a65780600260008282540392505081905550620008f3565b806000808473ffffffffffffffffffffffffffffffffffffffff1673ffffffffffffffffffffffffffffffffffffffff168152602001908152602001600020600082825401925050819055505b8173ffffffffffffffffffffffffffffffffffffffff168373ffffffffffffffffffffffffffffffffffffffff167fddf252ad1be2c89b69c2b068fc378daa952ba7f163c4a11628f55a4df523b3ef8360405162000952919062000ea5565b60405180910390a3505050565b6200098081620009746200049560201b60201c565b6200098360201b60201c565b50565b620009958282620006c460201b60201c565b620009db5780826040517fe2517d3f000000000000000000000000000000000000000000000000000000008152600401620009d292919062000f84565b60405180910390fd5b5050565b600080fd5b6000819050919050565b620009f981620009e4565b811462000a0557600080fd5b50565b60008151905062000a1981620009ee565b92915050565b600073ffffffffffffffffffffffffffffffffffffffff82169050919050565b600062000a4c8262000a1f565b9050919050565b62000a5e8162000a3f565b811462000a6a57600080fd5b50565b60008151905062000a7e8162000a53565b92915050565b60008060006060848603121562000aa05762000a9f620009df565b5b600062000ab08682870162000a08565b935050602062000ac38682870162000a6d565b925050604062000ad68682870162000a08565b9150509250925092565b600081519050919050565b7f4e487b7100000000000000000000000000000000000000000000000000000000600052604160045260246000fd5b7f4e487b7100000000000000000000000000000000000000000000000000000000600052602260045260246000fd5b6000600282049050600182168062000b6257607f821691505b60208210810362000b785762000b7762000b1a565b5b50919050565b60008190508160005260206000209050919050565b60006020601f8301049050919050565b600082821b905092915050565b60006008830262000be27fffffffffffffffffffffffffffffffffffffffffffffffffffffffffffffffff8262000ba3565b62000bee868362000ba3565b95508019841693508086168417925050509392505050565b6000819050919050565b600062000c3162000c2b62000c2584620009e4565b62000c06565b620009e4565b9050919050565b6000819050919050565b62000c4d8362000c10565b62000c6562000c5c8262000c38565b84845462000bb0565b825550505050565b600090565b62000c7c62000c6d565b62000c8981848462000c42565b505050565b5b8181101562000cb15762000ca560008262000c72565b60018101905062000c8f565b5050565b601f82111562000d005762000cca8162000b7e565b62000cd58462000b93565b8101602085101562000ce5578190505b62000cfd62000cf48562000b93565b83018262000c8e565b50505b505050565b600082821c905092915050565b600062000d256000198460080262000d05565b1980831691505092915050565b600062000d40838362000d12565b9150826002028217905092915050565b62000d5b8262000ae0565b67ffffffffffffffff81111562000d775762000d7662000aeb565b5b62000d83825462000b49565b62000d9082828562000cb5565b600060209050601f83116001811462000dc8576000841562000db3578287015190505b62000dbf858262000d32565b86555062000e2f565b601f19841662000dd88662000b7e565b60005b8281101562000e025784890151825560018201915060208501945060208101905062000ddb565b8683101562000e22578489015162000e1e601f89168262000d12565b8355505b6001600288020188555050505b505050505050565b62000e428162000a3f565b82525050565b600060208201905062000e5f600083018462000e37565b92915050565b7f4e487b7100000000000000000000000000000000000000000000000000000000600052603260045260246000fd5b62000e9f81620009e4565b82525050565b600060208201905062000ebc600083018462000e94565b92915050565b7f4e487b7100000000000000000000000000000000000000000000000000000000600052601160045260246000fd5b600062000efe82620009e4565b915062000f0b83620009e4565b925082820190508082111562000f265762000f2562000ec2565b5b92915050565b600060608201905062000f43600083018662000e37565b62000f52602083018562000e94565b62000f61604083018462000e94565b949350505050565b6000819050919050565b62000f7e8162000f69565b82525050565b600060408201905062000f9b600083018562000e37565b62000faa602083018462000f73565b9392505050565b61243f8062000fc16000396000f3fe608060405234801561001057600080fd5b50600436106101e55760003560e01c80635efd930b1161010f578063a217fddf116100a2578063beff682411610071578063beff68241461057c578063d53913931461059a578063d547741f146105b8578063dd62ed3e146105d4576101e5565b8063a217fddf146104f4578063a9059cbb14610512578063a9af157814610542578063acb2ad6f1461055e576101e5565b80638eb3478c116100de5780638eb3478c1461046c5780638f02bb5b1461048a57806391d14854146104a657806395d89b41146104d6576101e5565b80635efd930b146103e857806370a082311461040457806379cc6790146104345780638af6914e14610450576101e5565b8063313ce5671161018757806340c10f191161015657806340c10f191461037457806342966c68146103905780634626402b146103ac5780635e6f6045146103ca576101e5565b8063313ce5671461030257806336568abe146103205780633b5e37231461033c5780633e9e2f2014610358576101e5565b806318160ddd116101c357806318160ddd1461026857806323b872dd14610286578063248a9ca3146102b65780632f2ff15d146102e6576101e5565b806301ffc9a7146101ea57806306fdde031461021a578063095ea7b314610238575b600080fd5b61020460048036038101906101ff9190611bda565b610604565b6040516102119190611c22565b60405180910390f35b61022261067e565b60405161022f9190611ccd565b60405180910390f35b610252600480360381019061024d9190611d83565b610710565b60405161025f9190611c22565b60405180910390f35b610270610733565b60405161027d9190611dd2565b60405180910390f35b6102a0600480360381019061029b9190611ded565b61073d565b6040516102ad9190611c22565b60405180910390f35b6102d060048036038101906102cb9190611e76565b61076c565b6040516102dd9190611eb2565b60405180910390f35b61030060048036038101906102fb9190611ecd565b61078c565b005b61030a6107ae565b6040516103179190611f29565b60405180910390f35b61033a60048036038101906103359190611ecd565b6107b7565b005b6103566004803603810190610351919061208c565b610832565b005b610372600480360381019061036d919061208c565b6108a8565b005b61038e60048036038101906103899190611d83565b61091e565b005b6103aa60048036038101906103a591906120d5565b610a3a565b005b6103b4610a4e565b6040516103c19190612111565b60405180910390f35b6103d2610a74565b6040516103df9190612111565b60405180910390f35b61040260048036038101906103fd919061212c565b610a9a565b005b61041e6004803603810190610419919061212c565b610b89565b60405161042b9190611dd2565b60405180910390f35b61044e60048036038101906104499190611d83565b610bd1565b005b61046a6004803603810190610465919061208c565b610bf1565b005b610474610cac565b6040516104819190611eb2565b60405180910390f35b6104a4600480360381019061049f91906120d5565b610cd0565b005b6104c060048036038101906104bb9190611ecd565b610d5b565b6040516104cd9190611c22565b60405180910390f35b6104de610dc6565b6040516104eb9190611ccd565b60405180910390f35b6104fc610e58565b6040516105099190611eb2565b60405180910390f35b61052c60048036038101906105279190611d83565b610e5f565b6040516105399190611c22565b60405180910390f35b61055c6004803603810190610557919061212c565b610e82565b005b610566610fed565b6040516105739190611dd2565b60405180910390f35b610584610ff3565b6040516105919190611eb2565b60405180910390f35b6105a2611017565b6040516105af9190611eb2565b60405180910390f35b6105d260048036038101906105cd9190611ecd565b61103b565b005b6105ee60048036038101906105e99190612159565b61105d565b6040516105fb9190611dd2565b60405180910390f35b60007f7965db0b000000000000000000000000000000000000000000000000000000007bffffffffffffffffffffffffffffffffffffffffffffffffffffffff1916827bffffffffffffffffffffffffffffffffffffffffffffffffffffffff191614806106775750610676826110e4565b5b9050919050565b60606003805461068d906121c8565b80601f01602080910402602001604051908101604052809291908181526020018280546106b9906121c8565b80156107065780601f106106db57610100808354040283529160200191610706565b820191906000526020600020905b8154815290600101906020018083116106e957829003601f168201915b5050505050905090565b60008061071b61114e565b9050610728818585611156565b600191505092915050565b6000600254905090565b60008061074861114e565b9050610755858285611168565b6107608585856111fc565b60019150509392505050565b600060056000838152602001908152602001600020600101549050919050565b6107958261076c565b61079e81611284565b6107a88383611298565b50505050565b60006012905090565b6107bf61114e565b73ffffffffffffffffffffffffffffffffffffffff168173ffffffffffffffffffffffffffffffffffffffff1614610823576040517f6697b23200000000000000000000000000000000000000000000000000000000815260040160405180910390fd5b61082d828261138a565b505050565b6000801b61083f81611284565b60005b82518110156108a35761088f7ff9f7af319161f8f8778f9d05a8764338b5cd3d6ad150f323b0a23b0ef3c78b9a848381518110610882576108816121f9565b5b6020026020010151611298565b50808061089b90612257565b915050610842565b505050565b6000801b6108b581611284565b60005b8251811015610919576109057f4053bb3095634c58af32ef13d61eb0d9abd89281e8edd3a18203e4a88f07b2678483815181106108f8576108f76121f9565b5b6020026020010151611298565b50808061091190612257565b9150506108b8565b505050565b7ff0887ba65ee2024ea881d91b74c2450ef19e1557f03bed3ea9f16b037cbe2dc961094881611284565b6000600760009054906101000a900473ffffffffffffffffffffffffffffffffffffffff1673ffffffffffffffffffffffffffffffffffffffff1661098b61114e565b73ffffffffffffffffffffffffffffffffffffffff16146109ce576a52b7d2dcc80cd2e40000006b033b2e3c9fd0803ce80000006109c9919061229f565b6109dc565b6b033b2e3c9fd0803ce80000005b905080836109e8610733565b6109f291906122d3565b1115610a2a576040517f8a164f6300000000000000000000000000000000000000000000000000000000815260040160405180910390fd5b610a34848461147d565b50505050565b610a4b610a4561114e565b826114ff565b50565b600860009054906101000a900473ffffffffffffffffffffffffffffffffffffffff1681565b600760009054906101000a900473ffffffffffffffffffffffffffffffffffffffff1681565b6000801b610aa781611284565b600073ffffffffffffffffffffffffffffffffffffffff168273ffffffffffffffffffffffffffffffffffffffff1603610b0d576040517fd92e233d00000000000000000000000000000000000000000000000000000000815260040160405180910390fd5b81600860006101000a81548173ffffffffffffffffffffffffffffffffffffffff021916908373ffffffffffffffffffffffffffffffffffffffff1602179055507f97c79b3848e51f57983ac89e4403452655c8d83ceba8199011de63a74f60d1a782604051610b7d9190612111565b60405180910390a15050565b60008060008373ffffffffffffffffffffffffffffffffffffffff1673ffffffffffffffffffffffffffffffffffffffff168152602001908152602001600020549050919050565b610be382610bdd61114e565b83611168565b610bed82826114ff565b5050565b6000801b610bfe81611284565b60005b8251811015610ca757610c4e7ff9f7af319161f8f8778f9d05a8764338b5cd3d6ad150f323b0a23b0ef3c78b9a848381518110610c4157610c406121f9565b5b602002602001015161138a565b50610c937f4053bb3095634c58af32ef13d61eb0d9abd89281e8edd3a18203e4a88f07b267848381518110610c8657610c856121f9565b5b602002602001015161138a565b508080610c9f90612257565b915050610c01565b505050565b7ff9f7af319161f8f8778f9d05a8764338b5cd3d6ad150f323b0a23b0ef3c78b9a81565b6000801b610cdd81611284565b6101f4821115610d19576040517fc9034e1800000000000000000000000000000000000000000000000000000000815260040160405180910390fd5b816006819055507ff9f635b7cf851af6071aaf78ef8a5f752dc52f19d556fea4512b0c2ad4baea7282604051610d4f9190611dd2565b60405180910390a15050565b60006005600084815260200190815260200160002060000160008373ffffffffffffffffffffffffffffffffffffffff1673ffffffffffffffffffffffffffffffffffffffff16815260200190815260200160002060009054906101000a900460ff16905092915050565b606060048054610dd5906121c8565b80601f0160208091040260200160405190810160405280929190818152602001828054610e01906121c8565b8015610e4e5780601f10610e2357610100808354040283529160200191610e4e565b820191906000526020600020905b815481529060010190602001808311610e3157829003601f168201915b5050505050905090565b6000801b81565b600080610e6a61114e565b9050610e778185856111fc565b600191505092915050565b6000801b610e8f81611284565b600073ffffffffffffffffffffffffffffffffffffffff168273ffffffffffffffffffffffffffffffffffffffff1603610ef5576040517fd92e233d00000000000000000000000000000000000000000000000000000000815260040160405180910390fd5b600073ffffffffffffffffffffffffffffffffffffffff16600760009054906101000a900473ffffffffffffffffffffffffffffffffffffffff1673ffffffffffffffffffffffffffffffffffffffff1614610f7d576040517f29bdb53b00000000000000000000000000000000000000000000000000000000815260040160405180910390fd5b81600760006101000a81548173ffffffffffffffffffffffffffffffffffffffff021916908373ffffffffffffffffffffffffffffffffffffffff160217905550610fe87ff0887ba65ee2024ea881d91b74c2450ef19e1557f03bed3ea9f16b037cbe2dc983611298565b505050565b60065481565b7f4053bb3095634c58af32ef13d61eb0d9abd89281e8edd3a18203e4a88f07b26781565b7ff0887ba65ee2024ea881d91b74c2450ef19e1557f03bed3ea9f16b037cbe2dc981565b6110448261076c565b61104d81611284565b611057838361138a565b50505050565b6000600160008473ffffffffffffffffffffffffffffffffffffffff1673ffffffffffffffffffffffffffffffffffffffff16815260200190815260200160002060008373ffffffffffffffffffffffffffffffffffffffff1673ffffffffffffffffffffffffffffffffffffffff16815260200190815260200160002054905092915050565b60007f01ffc9a7000000000000000000000000000000000000000000000000000000007bffffffffffffffffffffffffffffffffffffffffffffffffffffffff1916827bffffffffffffffffffffffffffffffffffffffffffffffffffffffff1916149050919050565b600033905090565b6111638383836001611581565b505050565b6000611174848461105d565b90507fffffffffffffffffffffffffffffffffffffffffffffffffffffffffffffffff81146111f657818110156111e6578281836040517ffb8f41b20000000000000000000000000000000000000000000000000000000081526004016111dd93929190612307565b60405180910390fd5b6111f584848484036000611581565b5b50505050565b6112068383611758565b156112735760006127106006548361121e919061233e565b61122891906123af565b905061125784600860009054906101000a900473ffffffffffffffffffffffffffffffffffffffff1683611804565b61126d84848385611268919061229f565b611804565b5061127f565b61127e838383611804565b5b505050565b6112958161129061114e565b6118f8565b50565b60006112a48383610d5b565b61137f5760016005600085815260200190815260200160002060000160008473ffffffffffffffffffffffffffffffffffffffff1673ffffffffffffffffffffffffffffffffffffffff16815260200190815260200160002060006101000a81548160ff02191690831515021790555061131c61114e565b73ffffffffffffffffffffffffffffffffffffffff168273ffffffffffffffffffffffffffffffffffffffff16847f2f8788117e7eff1d82e926ec794901d17c78024a50270940304540a733656f0d60405160405180910390a460019050611384565b600090505b92915050565b60006113968383610d5b565b156114725760006005600085815260200190815260200160002060000160008473ffffffffffffffffffffffffffffffffffffffff1673ffffffffffffffffffffffffffffffffffffffff16815260200190815260200160002060006101000a81548160ff02191690831515021790555061140f61114e565b73ffffffffffffffffffffffffffffffffffffffff168273ffffffffffffffffffffffffffffffffffffffff16847ff6391f5c32d9c69d2a47ea670b442974b53935d1edc7fd64eb21e047a839171b60405160405180910390a460019050611477565b600090505b92915050565b600073ffffffffffffffffffffffffffffffffffffffff168273ffffffffffffffffffffffffffffffffffffffff16036114ef5760006040517fec442f050000000000000000000000000000000000000000000000000000000081526004016114e69190612111565b60405180910390fd5b6114fb60008383611949565b5050565b600073ffffffffffffffffffffffffffffffffffffffff168273ffffffffffffffffffffffffffffffffffffffff16036115715760006040517f96c6fd1e0000000000000000000000000000000000000000000000000000000081526004016115689190612111565b60405180910390fd5b61157d82600083611949565b5050565b600073ffffffffffffffffffffffffffffffffffffffff168473ffffffffffffffffffffffffffffffffffffffff16036115f35760006040517fe602df050000000000000000000000000000000000000000000000000000000081526004016115ea9190612111565b60405180910390fd5b600073ffffffffffffffffffffffffffffffffffffffff168373ffffffffffffffffffffffffffffffffffffffff16036116655760006040517f94280d6200000000000000000000000000000000000000000000000000000000815260040161165c9190612111565b60405180910390fd5b81600160008673ffffffffffffffffffffffffffffffffffffffff1673ffffffffffffffffffffffffffffffffffffffff16815260200190815260200160002060008573ffffffffffffffffffffffffffffffffffffffff1673ffffffffffffffffffffffffffffffffffffffff168152602001908152602001600020819055508015611752578273ffffffffffffffffffffffffffffffffffffffff168473ffffffffffffffffffffffffffffffffffffffff167f8c5be1e5ebec7d5bd14f71427d1e84f3dd0314c0f7b2291e5b200ac8c7c3b925846040516117499190611dd2565b60405180910390a35b50505050565b60006117847f4053bb3095634c58af32ef13d61eb0d9abd89281e8edd3a18203e4a88f07b26784610d5b565b1580156117b857506117b67f4053bb3095634c58af32ef13d61eb0d9abd89281e8edd3a18203e4a88f07b26783610d5b565b155b80156117eb57506117e97ff9f7af319161f8f8778f9d05a8764338b5cd3d6ad150f323b0a23b0ef3c78b9a83610d5b565b155b156117f957600190506117fe565b600090505b92915050565b600073ffffffffffffffffffffffffffffffffffffffff168373ffffffffffffffffffffffffffffffffffffffff16036118765760006040517f96c6fd1e00000000000000000000000000000000000000000000000000000000815260040161186d9190612111565b60405180910390fd5b600073ffffffffffffffffffffffffffffffffffffffff168273ffffffffffffffffffffffffffffffffffffffff16036118e85760006040517fec442f050000000000000000000000000000000000000000000000000000000081526004016118df9190612111565b60405180910390fd5b6118f3838383611949565b505050565b6119028282610d5b565b6119455780826040517fe2517d3f00000000000000000000000000000000000000000000000000000000815260040161193c9291906123e0565b60405180910390fd5b5050565b600073ffffffffffffffffffffffffffffffffffffffff168373ffffffffffffffffffffffffffffffffffffffff160361199b57806002600082825461198f91906122d3565b92505081905550611a6e565b60008060008573ffffffffffffffffffffffffffffffffffffffff1673ffffffffffffffffffffffffffffffffffffffff16815260200190815260200160002054905081811015611a27578381836040517fe450d38c000000000000000000000000000000000000000000000000000000008152600401611a1e93929190612307565b60405180910390fd5b8181036000808673ffffffffffffffffffffffffffffffffffffffff1673ffffffffffffffffffffffffffffffffffffffff16815260200190815260200160002081905550505b600073ffffffffffffffffffffffffffffffffffffffff168273ffffffffffffffffffffffffffffffffffffffff1603611ab75780600260008282540392505081905550611b04565b806000808473ffffffffffffffffffffffffffffffffffffffff1673ffffffffffffffffffffffffffffffffffffffff168152602001908152602001600020600082825401925050819055505b8173ffffffffffffffffffffffffffffffffffffffff168373ffffffffffffffffffffffffffffffffffffffff167fddf252ad1be2c89b69c2b068fc378daa952ba7f163c4a11628f55a4df523b3ef83604051611b619190611dd2565b60405180910390a3505050565b6000604051905090565b600080fd5b600080fd5b60007fffffffff0000000000000000000000000000000000000000000000000000000082169050919050565b611bb781611b82565b8114611bc257600080fd5b50565b600081359050611bd481611bae565b92915050565b600060208284031215611bf057611bef611b78565b5b6000611bfe84828501611bc5565b91505092915050565b60008115159050919050565b611c1c81611c07565b82525050565b6000602082019050611c376000830184611c13565b92915050565b600081519050919050565b600082825260208201905092915050565b60005b83811015611c77578082015181840152602081019050611c5c565b60008484015250505050565b6000601f19601f8301169050919050565b6000611c9f82611c3d565b611ca98185611c48565b9350611cb9818560208601611c59565b611cc281611c83565b840191505092915050565b60006020820190508181036000830152611ce78184611c94565b905092915050565b600073ffffffffffffffffffffffffffffffffffffffff82169050919050565b6000611d1a82611cef565b9050919050565b611d2a81611d0f565b8114611d3557600080fd5b50565b600081359050611d4781611d21565b92915050565b6000819050919050565b611d6081611d4d565b8114611d6b57600080fd5b50565b600081359050611d7d81611d57565b92915050565b60008060408385031215611d9a57611d99611b78565b5b6000611da885828601611d38565b9250506020611db985828601611d6e565b9150509250929050565b611dcc81611d4d565b82525050565b6000602082019050611de76000830184611dc3565b92915050565b600080600060608486031215611e0657611e05611b78565b5b6000611e1486828701611d38565b9350506020611e2586828701611d38565b9250506040611e3686828701611d6e565b9150509250925092565b6000819050919050565b611e5381611e40565b8114611e5e57600080fd5b50565b600081359050611e7081611e4a565b92915050565b600060208284031215611e8c57611e8b611b78565b5b6000611e9a84828501611e61565b91505092915050565b611eac81611e40565b82525050565b6000602082019050611ec76000830184611ea3565b92915050565b60008060408385031215611ee457611ee3611b78565b5b6000611ef285828601611e61565b9250506020611f0385828601611d38565b9150509250929050565b600060ff82169050919050565b611f2381611f0d565b82525050565b6000602082019050611f3e6000830184611f1a565b92915050565b600080fd5b7f4e487b7100000000000000000000000000000000000000000000000000000000600052604160045260246000fd5b611f8182611c83565b810181811067ffffffffffffffff82111715611fa057611f9f611f49565b5b80604052505050565b6000611fb3611b6e565b9050611fbf8282611f78565b919050565b600067ffffffffffffffff821115611fdf57611fde611f49565b5b602082029050602081019050919050565b600080fd5b600061200861200384611fc4565b611fa9565b9050808382526020820190506020840283018581111561202b5761202a611ff0565b5b835b8181101561205457806120408882611d38565b84526020840193505060208101905061202d565b5050509392505050565b600082601f83011261207357612072611f44565b5b8135612083848260208601611ff5565b91505092915050565b6000602082840312156120a2576120a1611b78565b5b600082013567ffffffffffffffff8111156120c0576120bf611b7d565b5b6120cc8482850161205e565b91505092915050565b6000602082840312156120eb576120ea611b78565b5b60006120f984828501611d6e565b91505092915050565b61210b81611d0f565b82525050565b60006020820190506121266000830184612102565b92915050565b60006020828403121561214257612141611b78565b5b600061215084828501611d38565b91505092915050565b600080604083850312156121705761216f611b78565b5b600061217e85828601611d38565b925050602061218f85828601611d38565b9150509250929050565b7f4e487b7100000000000000000000000000000000000000000000000000000000600052602260045260246000fd5b600060028204905060018216806121e057607f821691505b6020821081036121f3576121f2612199565b5b50919050565b7f4e487b7100000000000000000000000000000000000000000000000000000000600052603260045260246000fd5b7f4e487b7100000000000000000000000000000000000000000000000000000000600052601160045260246000fd5b600061226282611d4d565b91507fffffffffffffffffffffffffffffffffffffffffffffffffffffffffffffffff820361229457612293612228565b5b600182019050919050565b60006122aa82611d4d565b91506122b583611d4d565b92508282039050818111156122cd576122cc612228565b5b92915050565b60006122de82611d4d565b91506122e983611d4d565b925082820190508082111561230157612300612228565b5b92915050565b600060608201905061231c6000830186612102565b6123296020830185611dc3565b6123366040830184611dc3565b949350505050565b600061234982611d4d565b915061235483611d4d565b925082820261236281611d4d565b9150828204841483151761237957612378612228565b5b5092915050565b7f4e487b7100000000000000000000000000000000000000000000000000000000600052601260045260246000fd5b60006123ba82611d4d565b91506123c583611d4d565b9250826123d5576123d4612380565b5b828204905092915050565b60006040820190506123f56000830185612102565b6124026020830184611ea3565b939250505056fea26469706673582212206a3c92b655b6243ca6a90d7948a087ca92b00bbcdbb69602472f67f58681c65264736f6c63430008140033",
  "linkReferences": {},
  "deployedLinkReferences": {}
}