{
  "_format": "hh-sol-artifact-1",
  "contractName": "TokenStaking",
  "sourceName": "contracts/TokenStaking.sol",
  "abi": [
    {
      "inputs": [
        {
          "internalType": "address",
          "name": "_initialOwner",
          "type": "address"
        },
        {
          "internalType": "contract ILingoToken",
          "name": "_lingoToken",
          "type": "address"
        },
        {
          "internalType": "uint256[]",
          "name": "_lockDurations",
          "type": "uint256[]"
        }
      ],
      "stateMutability": "nonpayable",
      "type": "constructor"
    },
    {
      "inputs": [],
      "name": "InsufficientAmount",
      "type": "error"
    },
    {
      "inputs": [],
      "name": "InvalidDuration",
      "type": "error"
    },
    {
      "inputs": [
        {
          "internalType": "address",
          "name": "owner",
          "type": "address"
        }
      ],
      "name": "OwnableInvalidOwner",
      "type": "error"
    },
    {
      "inputs": [
        {
          "internalType": "address",
          "name": "account",
          "type": "address"
        }
      ],
      "name": "OwnableUnauthorizedAccount",
      "type": "error"
    },
    {
      "inputs": [],
      "name": "StakeStillLocked",
      "type": "error"
    },
    {
      "anonymous": false,
      "inputs": [
        {
          "indexed": false,
          "internalType": "uint256[]",
          "name": "durations",
          "type": "uint256[]"
        }
      ],
      "name": "LockDurationsUpdated",
      "type": "event"
    },
    {
      "anonymous": false,
      "inputs": [
        {
          "indexed": true,
          "internalType": "address",
          "name": "previousOwner",
          "type": "address"
        },
        {
          "indexed": true,
          "internalType": "address",
          "name": "newOwner",
          "type": "address"
        }
      ],
      "name": "OwnershipTransferStarted",
      "type": "event"
    },
    {
      "anonymous": false,
      "inputs": [
        {
          "indexed": true,
          "internalType": "address",
          "name": "previousOwner",
          "type": "address"
        },
        {
          "indexed": true,
          "internalType": "address",
          "name": "newOwner",
          "type": "address"
        }
      ],
      "name": "OwnershipTransferred",
      "type": "event"
    },
    {
      "anonymous": false,
      "inputs": [
        {
          "indexed": true,
          "internalType": "address",
          "name": "user",
          "type": "address"
        },
        {
          "indexed": false,
          "internalType": "uint256",
          "name": "amount",
          "type": "uint256"
        },
        {
          "indexed": false,
          "internalType": "uint256",
          "name": "duration",
          "type": "uint256"
        }
      ],
      "name": "Staked",
      "type": "event"
    },
    {
      "anonymous": false,
      "inputs": [
        {
          "indexed": true,
          "internalType": "address",
          "name": "user",
          "type": "address"
        },
        {
          "indexed": false,
          "internalType": "uint256",
          "name": "amount",
          "type": "uint256"
        }
      ],
      "name": "Unstaked",
      "type": "event"
    },
    {
      "inputs": [],
      "name": "LINGO_TOKEN",
      "outputs": [
        {
          "internalType": "contract ILingoToken",
          "name": "",
          "type": "address"
        }
      ],
      "stateMutability": "view",
      "type": "function"
    },
    {
      "inputs": [],
      "name": "MIN_DEPOSIT",
      "outputs": [
        {
          "internalType": "uint256",
          "name": "",
          "type": "uint256"
        }
      ],
      "stateMutability": "view",
      "type": "function"
    },
    {
      "inputs": [],
      "name": "acceptOwnership",
      "outputs": [],
      "stateMutability": "nonpayable",
      "type": "function"
    },
    {
      "inputs": [
        {
          "internalType": "address",
          "name": "_user",
          "type": "address"
        }
      ],
      "name": "getStakes",
      "outputs": [
        {
          "components": [
            {
              "internalType": "uint128",
              "name": "amount",
              "type": "uint128"
            },
            {
              "internalType": "uint128",
              "name": "unlockBlock",
              "type": "uint128"
            }
          ],
          "internalType": "struct TokenStaking.Position[]",
          "name": "",
          "type": "tuple[]"
        }
      ],
      "stateMutability": "view",
      "type": "function"
    },
    {
      "inputs": [
        {
          "internalType": "uint256",
          "name": "",
          "type": "uint256"
        }
      ],
      "name": "lockDurations",
      "outputs": [
        {
          "internalType": "uint256",
          "name": "",
          "type": "uint256"
        }
      ],
      "stateMutability": "view",
      "type": "function"
    },
    {
      "inputs": [],
      "name": "lockDurationsCount",
      "outputs": [
        {
          "internalType": "uint256",
          "name": "",
          "type": "uint256"
        }
      ],
      "stateMutability": "view",
      "type": "function"
    },
    {
      "inputs": [],
      "name": "owner",
      "outputs": [
        {
          "internalType": "address",
          "name": "",
          "type": "address"
        }
      ],
      "stateMutability": "view",
      "type": "function"
    },
    {
      "inputs": [],
      "name": "pendingOwner",
      "outputs": [
        {
          "internalType": "address",
          "name": "",
          "type": "address"
        }
      ],
      "stateMutability": "view",
      "type": "function"
    },
    {
      "inputs": [],
      "name": "renounceOwnership",
      "outputs": [],
      "stateMutability": "nonpayable",
      "type": "function"
    },
    {
      "inputs": [
        {
          "internalType": "uint256",
          "name": "_amount",
          "type": "uint256"
        },
        {
          "internalType": "uint256",
          "name": "_durationIndex",
          "type": "uint256"
        },
        {
          "internalType": "uint256",
          "name": "_expectedDuration",
          "type": "uint256"
        },
        {
          "internalType": "address",
          "name": "_user",
          "type": "address"
        }
      ],
      "name": "stake",
      "outputs": [],
      "stateMutability": "nonpayable",
      "type": "function"
    },
    {
      "inputs": [
        {
          "internalType": "address",
          "name": "newOwner",
          "type": "address"
        }
      ],
      "name": "transferOwnership",
      "outputs": [],
      "stateMutability": "nonpayable",
      "type": "function"
    },
    {
      "inputs": [
        {
          "internalType": "uint256",
          "name": "_stakeIndex",
          "type": "uint256"
        }
      ],
      "name": "unstake",
      "outputs": [],
      "stateMutability": "nonpayable",
      "type": "function"
    },
    {
      "inputs": [
        {
          "internalType": "uint256[]",
          "name": "_durations",
          "type": "uint256[]"
        }
      ],
      "name": "updateLockDurations",
      "outputs": [],
      "stateMutability": "nonpayable",
      "type": "function"
    }
  ],
  "bytecode": "0x60a06040523480156200001157600080fd5b5060405162001e3f38038062001e3f8339818101604052810190620000379190620004f9565b82600073ffffffffffffffffffffffffffffffffffffffff168173ffffffffffffffffffffffffffffffffffffffff1603620000ad5760006040517f1e4fbdf7000000000000000000000000000000000000000000000000000000008152600401620000a4919062000585565b60405180910390fd5b620000be816200011d60201b60201c565b508173ffffffffffffffffffffffffffffffffffffffff1660808173ffffffffffffffffffffffffffffffffffffffff168152505080600290805190602001906200010b9291906200021a565b508051600381905550505050620005a2565b600160006101000a81549073ffffffffffffffffffffffffffffffffffffffff021916905562000153816200015660201b60201c565b50565b60008060009054906101000a900473ffffffffffffffffffffffffffffffffffffffff169050816000806101000a81548173ffffffffffffffffffffffffffffffffffffffff021916908373ffffffffffffffffffffffffffffffffffffffff1602179055508173ffffffffffffffffffffffffffffffffffffffff168173ffffffffffffffffffffffffffffffffffffffff167f8be0079c531659141344cd1fd0a4f28419497f9722a3daafe3b4186f6b6457e060405160405180910390a35050565b82805482825590600052602060002090810192821562000259579160200282015b82811115620002585782518255916020019190600101906200023b565b5b5090506200026891906200026c565b5090565b5b80821115620002875760008160009055506001016200026d565b5090565b6000604051905090565b600080fd5b600080fd5b600073ffffffffffffffffffffffffffffffffffffffff82169050919050565b6000620002cc826200029f565b9050919050565b620002de81620002bf565b8114620002ea57600080fd5b50565b600081519050620002fe81620002d3565b92915050565b60006200031182620002bf565b9050919050565b620003238162000304565b81146200032f57600080fd5b50565b600081519050620003438162000318565b92915050565b600080fd5b6000601f19601f8301169050919050565b7f4e487b7100000000000000000000000000000000000000000000000000000000600052604160045260246000fd5b62000399826200034e565b810181811067ffffffffffffffff82111715620003bb57620003ba6200035f565b5b80604052505050565b6000620003d06200028b565b9050620003de82826200038e565b919050565b600067ffffffffffffffff8211156200040157620004006200035f565b5b602082029050602081019050919050565b600080fd5b6000819050919050565b6200042c8162000417565b81146200043857600080fd5b50565b6000815190506200044c8162000421565b92915050565b6000620004696200046384620003e3565b620003c4565b905080838252602082019050602084028301858111156200048f576200048e62000412565b5b835b81811015620004bc5780620004a788826200043b565b84526020840193505060208101905062000491565b5050509392505050565b600082601f830112620004de57620004dd62000349565b5b8151620004f084826020860162000452565b91505092915050565b60008060006060848603121562000515576200051462000295565b5b60006200052586828701620002ed565b9350506020620005388682870162000332565b925050604084015167ffffffffffffffff8111156200055c576200055b6200029a565b5b6200056a86828701620004c6565b9150509250925092565b6200057f81620002bf565b82525050565b60006020820190506200059c600083018462000574565b92915050565b608051611865620005da60003960008181610250015281816106ac01528181610793015281816107cf0152610b0b01526118656000f3fe608060405234801561001057600080fd5b50600436106100cf5760003560e01c8063715018a61161008c5780638da5cb5b116100665780638da5cb5b146101d8578063e1e158a5146101f6578063e30c397814610214578063f2fde38b14610232576100cf565b8063715018a61461019457806379ba50971461019e5780637ba6f458146101a8576100cf565b806301bd6693146100d45780632e17de78146100f257806330815e561461010e57806332298be11461012a578063426a68ba1461015a5780635ef3598414610176575b600080fd5b6100dc61024e565b6040516100e99190611187565b60405180910390f35b61010c600480360381019061010791906111e2565b610272565b005b6101286004803603810190610123919061124d565b61074f565b005b610144600480360381019061013f91906111e2565b610bb2565b60405161015191906112c3565b60405180910390f35b610174600480360381019061016f9190611343565b610bd6565b005b61017e610c37565b60405161018b91906112c3565b60405180910390f35b61019c610c3d565b005b6101a6610c51565b005b6101c260048036038101906101bd9190611390565b610ce0565b6040516101cf91906114c6565b60405180910390f35b6101e0610e0e565b6040516101ed91906114f7565b60405180910390f35b6101fe610e37565b60405161020b91906112c3565b60405180910390f35b61021c610e43565b60405161022991906114f7565b60405180910390f35b61024c60048036038101906102479190611390565b610e6d565b005b7f000000000000000000000000000000000000000000000000000000000000000081565b6000600460003373ffffffffffffffffffffffffffffffffffffffff1673ffffffffffffffffffffffffffffffffffffffff16815260200190815260200160002082815481106102c5576102c4611512565b5b906000526020600020016040518060400160405290816000820160009054906101000a90046fffffffffffffffffffffffffffffffff166fffffffffffffffffffffffffffffffff166fffffffffffffffffffffffffffffffff1681526020016000820160109054906101000a90046fffffffffffffffffffffffffffffffff166fffffffffffffffffffffffffffffffff166fffffffffffffffffffffffffffffffff1681525050905080602001516fffffffffffffffffffffffffffffffff164310156103c0576040517f7f6699f600000000000000000000000000000000000000000000000000000000815260040160405180910390fd5b600081600001516fffffffffffffffffffffffffffffffff1690506000600460003373ffffffffffffffffffffffffffffffffffffffff1673ffffffffffffffffffffffffffffffffffffffff16815260200190815260200160002080549050905060018161042f9190611570565b8410156105b257600460003373ffffffffffffffffffffffffffffffffffffffff1673ffffffffffffffffffffffffffffffffffffffff1681526020019081526020016000206001826104829190611570565b8154811061049357610492611512565b5b90600052602060002001600460003373ffffffffffffffffffffffffffffffffffffffff1673ffffffffffffffffffffffffffffffffffffffff16815260200190815260200160002085815481106104ee576104ed611512565b5b906000526020600020016000820160009054906101000a90046fffffffffffffffffffffffffffffffff168160000160006101000a8154816fffffffffffffffffffffffffffffffff02191690836fffffffffffffffffffffffffffffffff1602179055506000820160109054906101000a90046fffffffffffffffffffffffffffffffff168160000160106101000a8154816fffffffffffffffffffffffffffffffff02191690836fffffffffffffffffffffffffffffffff1602179055509050505b600460003373ffffffffffffffffffffffffffffffffffffffff1673ffffffffffffffffffffffffffffffffffffffff168152602001908152602001600020805480610601576106006115a4565b5b60019003818190600052602060002001600080820160006101000a8154906fffffffffffffffffffffffffffffffff02191690556000820160106101000a8154906fffffffffffffffffffffffffffffffff0219169055505090553373ffffffffffffffffffffffffffffffffffffffff167f0f5bb82176feb1b5e747e28471aa92156a04d9f3ab9f45f28e2d704232b93f75836040516106a291906112c3565b60405180910390a27f000000000000000000000000000000000000000000000000000000000000000073ffffffffffffffffffffffffffffffffffffffff1663a9059cbb33846040518363ffffffff1660e01b81526004016107059291906115d3565b6020604051808303816000875af1158015610724573d6000803e3d6000fd5b505050506040513d601f19601f820116820180604052508101906107489190611634565b5050505050565b670de0b6b3a7640000841015610791576040517f5945ea5600000000000000000000000000000000000000000000000000000000815260040160405180910390fd5b7f000000000000000000000000000000000000000000000000000000000000000073ffffffffffffffffffffffffffffffffffffffff166391d148547f000000000000000000000000000000000000000000000000000000000000000073ffffffffffffffffffffffffffffffffffffffff1663beff68246040518163ffffffff1660e01b8152600401602060405180830381865afa158015610838573d6000803e3d6000fd5b505050506040513d601f19601f8201168201806040525081019061085c9190611697565b306040518363ffffffff1660e01b815260040161087a9291906116d3565b602060405180830381865afa158015610897573d6000803e3d6000fd5b505050506040513d601f19601f820116820180604052508101906108bb9190611634565b6108f1576040517f5945ea5600000000000000000000000000000000000000000000000000000000815260040160405180910390fd5b826002805490501015610930576040517f7616640100000000000000000000000000000000000000000000000000000000815260040160405180910390fd5b60006002848154811061094657610945611512565b5b9060005260206000200154905082811461098c576040517f7616640100000000000000000000000000000000000000000000000000000000815260040160405180910390fd5b6000814361099a91906116fc565b9050600460008473ffffffffffffffffffffffffffffffffffffffff1673ffffffffffffffffffffffffffffffffffffffff1681526020019081526020016000206040518060400160405280886fffffffffffffffffffffffffffffffff168152602001836fffffffffffffffffffffffffffffffff168152509080600181540180825580915050600190039060005260206000200160009091909190915060008201518160000160006101000a8154816fffffffffffffffffffffffffffffffff02191690836fffffffffffffffffffffffffffffffff16021790555060208201518160000160106101000a8154816fffffffffffffffffffffffffffffffff02191690836fffffffffffffffffffffffffffffffff16021790555050508273ffffffffffffffffffffffffffffffffffffffff167f1449c6dd7851abc30abf37f57715f492010519147cc2652fbc38202c18a6ee908784604051610b01929190611730565b60405180910390a27f000000000000000000000000000000000000000000000000000000000000000073ffffffffffffffffffffffffffffffffffffffff166323b872dd3330896040518463ffffffff1660e01b8152600401610b6693929190611759565b6020604051808303816000875af1158015610b85573d6000803e3d6000fd5b505050506040513d601f19601f82011682018060405250810190610ba99190611634565b50505050505050565b60028181548110610bc257600080fd5b906000526020600020016000915090505481565b610bde610f1a565b818160029190610bef92919061109e565b50818190506003819055507f9780548ef7f1e6d518ed24ba83017458b93e5a30eb724beaaaadab37c3fcdbb68282604051610c2b92919061180b565b60405180910390a15050565b60035481565b610c45610f1a565b610c4f6000610fa1565b565b6000610c5b610fd2565b90508073ffffffffffffffffffffffffffffffffffffffff16610c7c610e43565b73ffffffffffffffffffffffffffffffffffffffff1614610cd457806040517f118cdaa7000000000000000000000000000000000000000000000000000000008152600401610ccb91906114f7565b60405180910390fd5b610cdd81610fa1565b50565b6060600460008373ffffffffffffffffffffffffffffffffffffffff1673ffffffffffffffffffffffffffffffffffffffff168152602001908152602001600020805480602002602001604051908101604052809291908181526020016000905b82821015610e03578382906000526020600020016040518060400160405290816000820160009054906101000a90046fffffffffffffffffffffffffffffffff166fffffffffffffffffffffffffffffffff166fffffffffffffffffffffffffffffffff1681526020016000820160109054906101000a90046fffffffffffffffffffffffffffffffff166fffffffffffffffffffffffffffffffff166fffffffffffffffffffffffffffffffff168152505081526020019060010190610d41565b505050509050919050565b60008060009054906101000a900473ffffffffffffffffffffffffffffffffffffffff16905090565b670de0b6b3a764000081565b6000600160009054906101000a900473ffffffffffffffffffffffffffffffffffffffff16905090565b610e75610f1a565b80600160006101000a81548173ffffffffffffffffffffffffffffffffffffffff021916908373ffffffffffffffffffffffffffffffffffffffff1602179055508073ffffffffffffffffffffffffffffffffffffffff16610ed5610e0e565b73ffffffffffffffffffffffffffffffffffffffff167f38d16b8cac22d99fc7c124b9cd0de2d3fa1faef420bfe791d8c362d765e2270060405160405180910390a350565b610f22610fd2565b73ffffffffffffffffffffffffffffffffffffffff16610f40610e0e565b73ffffffffffffffffffffffffffffffffffffffff1614610f9f57610f63610fd2565b6040517f118cdaa7000000000000000000000000000000000000000000000000000000008152600401610f9691906114f7565b60405180910390fd5b565b600160006101000a81549073ffffffffffffffffffffffffffffffffffffffff0219169055610fcf81610fda565b50565b600033905090565b60008060009054906101000a900473ffffffffffffffffffffffffffffffffffffffff169050816000806101000a81548173ffffffffffffffffffffffffffffffffffffffff021916908373ffffffffffffffffffffffffffffffffffffffff1602179055508173ffffffffffffffffffffffffffffffffffffffff168173ffffffffffffffffffffffffffffffffffffffff167f8be0079c531659141344cd1fd0a4f28419497f9722a3daafe3b4186f6b6457e060405160405180910390a35050565b8280548282559060005260206000209081019282156110da579160200282015b828111156110d95782358255916020019190600101906110be565b5b5090506110e791906110eb565b5090565b5b808211156111045760008160009055506001016110ec565b5090565b600073ffffffffffffffffffffffffffffffffffffffff82169050919050565b6000819050919050565b600061114d61114861114384611108565b611128565b611108565b9050919050565b600061115f82611132565b9050919050565b600061117182611154565b9050919050565b61118181611166565b82525050565b600060208201905061119c6000830184611178565b92915050565b600080fd5b600080fd5b6000819050919050565b6111bf816111ac565b81146111ca57600080fd5b50565b6000813590506111dc816111b6565b92915050565b6000602082840312156111f8576111f76111a2565b5b6000611206848285016111cd565b91505092915050565b600061121a82611108565b9050919050565b61122a8161120f565b811461123557600080fd5b50565b60008135905061124781611221565b92915050565b60008060008060808587031215611267576112666111a2565b5b6000611275878288016111cd565b9450506020611286878288016111cd565b9350506040611297878288016111cd565b92505060606112a887828801611238565b91505092959194509250565b6112bd816111ac565b82525050565b60006020820190506112d860008301846112b4565b92915050565b600080fd5b600080fd5b600080fd5b60008083601f840112611303576113026112de565b5b8235905067ffffffffffffffff8111156113205761131f6112e3565b5b60208301915083602082028301111561133c5761133b6112e8565b5b9250929050565b6000806020838503121561135a576113596111a2565b5b600083013567ffffffffffffffff811115611378576113776111a7565b5b611384858286016112ed565b92509250509250929050565b6000602082840312156113a6576113a56111a2565b5b60006113b484828501611238565b91505092915050565b600081519050919050565b600082825260208201905092915050565b6000819050602082019050919050565b60006fffffffffffffffffffffffffffffffff82169050919050565b61140e816113e9565b82525050565b60408201600082015161142a6000850182611405565b50602082015161143d6020850182611405565b50505050565b600061144f8383611414565b60408301905092915050565b6000602082019050919050565b6000611473826113bd565b61147d81856113c8565b9350611488836113d9565b8060005b838110156114b95781516114a08882611443565b97506114ab8361145b565b92505060018101905061148c565b5085935050505092915050565b600060208201905081810360008301526114e08184611468565b905092915050565b6114f18161120f565b82525050565b600060208201905061150c60008301846114e8565b92915050565b7f4e487b7100000000000000000000000000000000000000000000000000000000600052603260045260246000fd5b7f4e487b7100000000000000000000000000000000000000000000000000000000600052601160045260246000fd5b600061157b826111ac565b9150611586836111ac565b925082820390508181111561159e5761159d611541565b5b92915050565b7f4e487b7100000000000000000000000000000000000000000000000000000000600052603160045260246000fd5b60006040820190506115e860008301856114e8565b6115f560208301846112b4565b9392505050565b60008115159050919050565b611611816115fc565b811461161c57600080fd5b50565b60008151905061162e81611608565b92915050565b60006020828403121561164a576116496111a2565b5b60006116588482850161161f565b91505092915050565b6000819050919050565b61167481611661565b811461167f57600080fd5b50565b6000815190506116918161166b565b92915050565b6000602082840312156116ad576116ac6111a2565b5b60006116bb84828501611682565b91505092915050565b6116cd81611661565b82525050565b60006040820190506116e860008301856116c4565b6116f560208301846114e8565b9392505050565b6000611707826111ac565b9150611712836111ac565b925082820190508082111561172a57611729611541565b5b92915050565b600060408201905061174560008301856112b4565b61175260208301846112b4565b9392505050565b600060608201905061176e60008301866114e8565b61177b60208301856114e8565b61178860408301846112b4565b949350505050565b600082825260208201905092915050565b600080fd5b82818337505050565b60006117bb8385611790565b93507f07ffffffffffffffffffffffffffffffffffffffffffffffffffffffffffffff8311156117ee576117ed6117a1565b5b6020830292506117ff8385846117a6565b82840190509392505050565b600060208201905081810360008301526118268184866117af565b9050939250505056fea2646970667358221220a47d8b3b56d43f6426f10ed0f2220476e9e9dd4b2d90f73a70364d38c690357a64736f6c63430008140033",
  "linkReferences": {},
  "deployedLinkReferences": {}
}