{
  "_format": "hh-sol-artifact-1",
  "contractName": "TokenVesting",
  "sourceName": "contracts/TokenVesting.sol",
  "abi": [
    {
      "inputs": [
        {
          "internalType": "address",
          "name": "_initialOwner",
          "type": "address"
        },
        {
          "internalType": "address",
          "name": "_tokenAddress",
          "type": "address"
        },
        {
          "internalType": "address",
          "name": "_stakingAddress",
          "type": "address"
        },
        {
          "components": [
            {
              "internalType": "uint128",
              "name": "rateUnlockedAtStart",
              "type": "uint128"
            },
            {
              "internalType": "uint64",
              "name": "cliffDuration",
              "type": "uint64"
            },
            {
              "internalType": "uint64",
              "name": "vestingDuration",
              "type": "uint64"
            }
          ],
          "internalType": "struct TokenVesting.VestingSchedule[]",
          "name": "_vestingSchedules",
          "type": "tuple[]"
        },
        {
          "internalType": "uint256",
          "name": "_startBlock",
          "type": "uint256"
        }
      ],
      "stateMutability": "nonpayable",
      "type": "constructor"
    },
    {
      "inputs": [],
      "name": "InvalidMerkleProof",
      "type": "error"
    },
    {
      "inputs": [],
      "name": "MerkleRootAlreadySet",
      "type": "error"
    },
    {
      "inputs": [],
      "name": "NoClaimableTokens",
      "type": "error"
    },
    {
      "inputs": [
        {
          "internalType": "address",
          "name": "owner",
          "type": "address"
        }
      ],
      "name": "OwnableInvalidOwner",
      "type": "error"
    },
    {
      "inputs": [
        {
          "internalType": "address",
          "name": "account",
          "type": "address"
        }
      ],
      "name": "OwnableUnauthorizedAccount",
      "type": "error"
    },
    {
      "inputs": [],
      "name": "WrongLength",
      "type": "error"
    },
    {
      "anonymous": false,
      "inputs": [
        {
          "indexed": true,
          "internalType": "address",
          "name": "previousOwner",
          "type": "address"
        },
        {
          "indexed": true,
          "internalType": "address",
          "name": "newOwner",
          "type": "address"
        }
      ],
      "name": "OwnershipTransferStarted",
      "type": "event"
    },
    {
      "anonymous": false,
      "inputs": [
        {
          "indexed": true,
          "internalType": "address",
          "name": "previousOwner",
          "type": "address"
        },
        {
          "indexed": true,
          "internalType": "address",
          "name": "newOwner",
          "type": "address"
        }
      ],
      "name": "OwnershipTransferred",
      "type": "event"
    },
    {
      "anonymous": false,
      "inputs": [
        {
          "indexed": false,
          "internalType": "address",
          "name": "beneficiary",
          "type": "address"
        },
        {
          "indexed": false,
          "internalType": "uint256",
          "name": "amount",
          "type": "uint256"
        }
      ],
      "name": "TokensReleased",
      "type": "event"
    },
    {
      "inputs": [],
      "name": "STAKING",
      "outputs": [
        {
          "internalType": "contract TokenStaking",
          "name": "",
          "type": "address"
        }
      ],
      "stateMutability": "view",
      "type": "function"
    },
    {
      "inputs": [],
      "name": "START_BLOCK",
      "outputs": [
        {
          "internalType": "uint256",
          "name": "",
          "type": "uint256"
        }
      ],
      "stateMutability": "view",
      "type": "function"
    },
    {
      "inputs": [],
      "name": "TOKEN",
      "outputs": [
        {
          "internalType": "contract LingoToken",
          "name": "",
          "type": "address"
        }
      ],
      "stateMutability": "view",
      "type": "function"
    },
    {
      "inputs": [],
      "name": "acceptOwnership",
      "outputs": [],
      "stateMutability": "nonpayable",
      "type": "function"
    },
    {
      "inputs": [
        {
          "internalType": "bytes32[]",
          "name": "_merkleProof",
          "type": "bytes32[]"
        },
        {
          "internalType": "enum TokenVesting.BeneficiaryType",
          "name": "_beneficiaryType",
          "type": "uint8"
        },
        {
          "internalType": "uint256",
          "name": "_totalAllocation",
          "type": "uint256"
        },
        {
          "internalType": "uint256",
          "name": "_durationIndex",
          "type": "uint256"
        },
        {
          "internalType": "uint256",
          "name": "_expectedDuration",
          "type": "uint256"
        }
      ],
      "name": "claimAndStakeTokens",
      "outputs": [],
      "stateMutability": "nonpayable",
      "type": "function"
    },
    {
      "inputs": [
        {
          "internalType": "bytes32[]",
          "name": "_merkleProof",
          "type": "bytes32[]"
        },
        {
          "internalType": "enum TokenVesting.BeneficiaryType",
          "name": "_beneficiaryType",
          "type": "uint8"
        },
        {
          "internalType": "uint256",
          "name": "_totalAllocation",
          "type": "uint256"
        }
      ],
      "name": "claimTokens",
      "outputs": [],
      "stateMutability": "nonpayable",
      "type": "function"
    },
    {
      "inputs": [
        {
          "internalType": "address",
          "name": "_user",
          "type": "address"
        },
        {
          "internalType": "enum TokenVesting.BeneficiaryType",
          "name": "_beneficiaryType",
          "type": "uint8"
        },
        {
          "internalType": "uint256",
          "name": "_totalAllocation",
          "type": "uint256"
        }
      ],
      "name": "claimableTokenOf",
      "outputs": [
        {
          "internalType": "uint256",
          "name": "",
          "type": "uint256"
        }
      ],
      "stateMutability": "view",
      "type": "function"
    },
    {
      "inputs": [
        {
          "internalType": "address",
          "name": "",
          "type": "address"
        },
        {
          "internalType": "enum TokenVesting.BeneficiaryType",
          "name": "",
          "type": "uint8"
        }
      ],
      "name": "claimedTokens",
      "outputs": [
        {
          "internalType": "uint256",
          "name": "",
          "type": "uint256"
        }
      ],
      "stateMutability": "view",
      "type": "function"
    },
    {
      "inputs": [],
      "name": "merkleRoot",
      "outputs": [
        {
          "internalType": "bytes32",
          "name": "",
          "type": "bytes32"
        }
      ],
      "stateMutability": "view",
      "type": "function"
    },
    {
      "inputs": [],
      "name": "owner",
      "outputs": [
        {
          "internalType": "address",
          "name": "",
          "type": "address"
        }
      ],
      "stateMutability": "view",
      "type": "function"
    },
    {
      "inputs": [],
      "name": "pendingOwner",
      "outputs": [
        {
          "internalType": "address",
          "name": "",
          "type": "address"
        }
      ],
      "stateMutability": "view",
      "type": "function"
    },
    {
      "inputs": [],
      "name": "renounceOwnership",
      "outputs": [],
      "stateMutability": "nonpayable",
      "type": "function"
    },
    {
      "inputs": [
        {
          "internalType": "bytes32",
          "name": "_merkleRoot",
          "type": "bytes32"
        }
      ],
      "name": "setMerkleRoot",
      "outputs": [],
      "stateMutability": "nonpayable",
      "type": "function"
    },
    {
      "inputs": [
        {
          "internalType": "address",
          "name": "newOwner",
          "type": "address"
        }
      ],
      "name": "transferOwnership",
      "outputs": [],
      "stateMutability": "nonpayable",
      "type": "function"
    },
    {
      "inputs": [
        {
          "internalType": "enum TokenVesting.BeneficiaryType",
          "name": "",
          "type": "uint8"
        }
      ],
      "name": "vestingSchedules",
      "outputs": [
        {
          "internalType": "uint128",
          "name": "rateUnlockedAtStart",
          "type": "uint128"
        },
        {
          "internalType": "uint64",
          "name": "cliffDuration",
          "type": "uint64"
        },
        {
          "internalType": "uint64",
          "name": "vestingDuration",
          "type": "uint64"
        }
      ],
      "stateMutability": "view",
      "type": "function"
    }
  ],
  "bytecode": "0x60e06040523480156200001157600080fd5b50604051620020b5380380620020b58339818101604052810190620000379190620006d6565b84600073ffffffffffffffffffffffffffffffffffffffff168173ffffffffffffffffffffffffffffffffffffffff1603620000ad5760006040517f1e4fbdf7000000000000000000000000000000000000000000000000000000008152600401620000a491906200078e565b60405180910390fd5b620000be81620002aa60201b60201c565b508373ffffffffffffffffffffffffffffffffffffffff1660808173ffffffffffffffffffffffffffffffffffffffff16815250508273ffffffffffffffffffffffffffffffffffffffff1660a08173ffffffffffffffffffffffffffffffffffffffff16815250508060c0818152505060088251146200016b576040517f92aa5ab200000000000000000000000000000000000000000000000000000000815260040160405180910390fd5b60005b82518110156200029e578281815181106200018e576200018d620007ab565b5b602002602001015160036000836007811115620001b057620001af620007da565b5b6007811115620001c557620001c4620007da565b5b6007811115620001da57620001d9620007da565b5b815260200190815260200160002060008201518160000160006101000a8154816fffffffffffffffffffffffffffffffff02191690836fffffffffffffffffffffffffffffffff16021790555060208201518160000160106101000a81548167ffffffffffffffff021916908367ffffffffffffffff16021790555060408201518160000160186101000a81548167ffffffffffffffff021916908367ffffffffffffffff1602179055509050508080620002959062000838565b9150506200016e565b50505050505062000885565b600160006101000a81549073ffffffffffffffffffffffffffffffffffffffff0219169055620002e081620002e360201b60201c565b50565b60008060009054906101000a900473ffffffffffffffffffffffffffffffffffffffff169050816000806101000a81548173ffffffffffffffffffffffffffffffffffffffff021916908373ffffffffffffffffffffffffffffffffffffffff1602179055508173ffffffffffffffffffffffffffffffffffffffff168173ffffffffffffffffffffffffffffffffffffffff167f8be0079c531659141344cd1fd0a4f28419497f9722a3daafe3b4186f6b6457e060405160405180910390a35050565b6000604051905090565b600080fd5b600080fd5b600073ffffffffffffffffffffffffffffffffffffffff82169050919050565b6000620003e882620003bb565b9050919050565b620003fa81620003db565b81146200040657600080fd5b50565b6000815190506200041a81620003ef565b92915050565b600080fd5b6000601f19601f8301169050919050565b7f4e487b7100000000000000000000000000000000000000000000000000000000600052604160045260246000fd5b620004708262000425565b810181811067ffffffffffffffff8211171562000492576200049162000436565b5b80604052505050565b6000620004a7620003a7565b9050620004b5828262000465565b919050565b600067ffffffffffffffff821115620004d857620004d762000436565b5b602082029050602081019050919050565b600080fd5b600080fd5b60006fffffffffffffffffffffffffffffffff82169050919050565b6200051a81620004f3565b81146200052657600080fd5b50565b6000815190506200053a816200050f565b92915050565b600067ffffffffffffffff82169050919050565b6200055f8162000540565b81146200056b57600080fd5b50565b6000815190506200057f8162000554565b92915050565b6000606082840312156200059e576200059d620004ee565b5b620005aa60606200049b565b90506000620005bc8482850162000529565b6000830152506020620005d2848285016200056e565b6020830152506040620005e8848285016200056e565b60408301525092915050565b60006200060b6200060584620004ba565b6200049b565b90508083825260208201905060608402830185811115620006315762000630620004e9565b5b835b818110156200065e578062000649888262000585565b84526020840193505060608101905062000633565b5050509392505050565b600082601f83011262000680576200067f62000420565b5b815162000692848260208601620005f4565b91505092915050565b6000819050919050565b620006b0816200069b565b8114620006bc57600080fd5b50565b600081519050620006d081620006a5565b92915050565b600080600080600060a08688031215620006f557620006f4620003b1565b5b6000620007058882890162000409565b9550506020620007188882890162000409565b94505060406200072b8882890162000409565b935050606086015167ffffffffffffffff8111156200074f576200074e620003b6565b5b6200075d8882890162000668565b92505060806200077088828901620006bf565b9150509295509295909350565b6200078881620003db565b82525050565b6000602082019050620007a560008301846200077d565b92915050565b7f4e487b7100000000000000000000000000000000000000000000000000000000600052603260045260246000fd5b7f4e487b7100000000000000000000000000000000000000000000000000000000600052602160045260246000fd5b7f4e487b7100000000000000000000000000000000000000000000000000000000600052601160045260246000fd5b600062000845826200069b565b91507fffffffffffffffffffffffffffffffffffffffffffffffffffffffffffffffff82036200087a576200087962000809565b5b600182019050919050565b60805160a05160c0516117d6620008df600039600081816102cc01528181610426015261045c01526000818161072b0152818161085901526108dc0152600081816106de0152818161081d0152610caf01526117d66000f3fe608060405234801561001057600080fd5b50600436106100f55760003560e01c80638da5cb5b11610097578063e30c397811610066578063e30c397814610252578063eb072d4814610270578063ef0fe31f1461028c578063f2fde38b146102a8576100f5565b80638da5cb5b146101b457806397610f30146101d2578063b4a0dc01146101f0578063b86b4e1414610222576100f5565b8063715018a6116100d3578063715018a61461016657806379ba5097146101705780637cb647591461017a57806382bfefc814610196576100f5565b80632eb4a7ab146100fa57806339b3e8261461011857806370cd0d9614610136575b600080fd5b6101026102c4565b60405161010f9190610f0d565b60405180910390f35b6101206102ca565b60405161012d9190610f41565b60405180910390f35b610150600480360381019061014b9190611015565b6102ee565b60405161015d9190610f41565b60405180910390f35b61016e6105e9565b005b6101786105fd565b005b610194600480360381019061018f9190611094565b61068c565b005b61019e6106dc565b6040516101ab9190611120565b60405180910390f35b6101bc610700565b6040516101c9919061114a565b60405180910390f35b6101da610729565b6040516101e79190611186565b60405180910390f35b61020a600480360381019061020591906111a1565b61074d565b6040516102199392919061121c565b60405180910390f35b61023c60048036038101906102379190611253565b6107bb565b6040516102499190610f41565b60405180910390f35b61025a6107e0565b604051610267919061114a565b60405180910390f35b61028a600480360381019061028591906112f8565b61080a565b005b6102a660048036038101906102a19190611392565b610974565b005b6102c260048036038101906102bd9190611406565b610988565b005b60025481565b7f000000000000000000000000000000000000000000000000000000000000000081565b6000806003600085600781111561030857610307611433565b5b600781111561031a57610319611433565b5b81526020019081526020016000206040518060600160405290816000820160009054906101000a90046fffffffffffffffffffffffffffffffff166fffffffffffffffffffffffffffffffff166fffffffffffffffffffffffffffffffff1681526020016000820160109054906101000a900467ffffffffffffffff1667ffffffffffffffff1667ffffffffffffffff1681526020016000820160189054906101000a900467ffffffffffffffff1667ffffffffffffffff1667ffffffffffffffff16815250509050600081600001516fffffffffffffffffffffffffffffffff1690506000826020015167ffffffffffffffff1690506000836040015167ffffffffffffffff1690507f000000000000000000000000000000000000000000000000000000000000000043116104585760009450505050506105e2565b60007f0000000000000000000000000000000000000000000000000000000000000000436104869190611491565b905060006064858961049891906114c5565b6104a29190611536565b90508382111561054257600084836104ba9190611491565b9050600085856104ca9190611491565b90506000670de0b6b3a7640000606483670de0b6b3a7640000866104ee91906114c5565b6104f89190611536565b61050291906114c5565b61050c9190611536565b9050606481858d61051d9190611491565b61052791906114c5565b6105319190611536565b8461053c9190611567565b93505050505b87811161054f5780610551565b875b90506000600460008c73ffffffffffffffffffffffffffffffffffffffff1673ffffffffffffffffffffffffffffffffffffffff16815260200190815260200160002060008b60078111156105a9576105a8611433565b5b60078111156105bb576105ba611433565b5b815260200190815260200160002054826105d59190611491565b9050809750505050505050505b9392505050565b6105f1610a35565b6105fb6000610abc565b565b6000610607610aed565b90508073ffffffffffffffffffffffffffffffffffffffff166106286107e0565b73ffffffffffffffffffffffffffffffffffffffff161461068057806040517f118cdaa7000000000000000000000000000000000000000000000000000000008152600401610677919061114a565b60405180910390fd5b61068981610abc565b50565b610694610a35565b6000801b600254146106d2576040517f6006d96400000000000000000000000000000000000000000000000000000000815260040160405180910390fd5b8060028190555050565b7f000000000000000000000000000000000000000000000000000000000000000081565b60008060009054906101000a900473ffffffffffffffffffffffffffffffffffffffff16905090565b7f000000000000000000000000000000000000000000000000000000000000000081565b60036020528060005260406000206000915090508060000160009054906101000a90046fffffffffffffffffffffffffffffffff16908060000160109054906101000a900467ffffffffffffffff16908060000160189054906101000a900467ffffffffffffffff16905083565b6004602052816000526040600020602052806000526040600020600091509150505481565b6000600160009054906101000a900473ffffffffffffffffffffffffffffffffffffffff16905090565b60006108198787878730610af5565b90507f000000000000000000000000000000000000000000000000000000000000000073ffffffffffffffffffffffffffffffffffffffff1663095ea7b37f0000000000000000000000000000000000000000000000000000000000000000866040518363ffffffff1660e01b815260040161089692919061159b565b6020604051808303816000875af11580156108b5573d6000803e3d6000fd5b505050506040513d601f19601f820116820180604052508101906108d991906115fc565b507f000000000000000000000000000000000000000000000000000000000000000073ffffffffffffffffffffffffffffffffffffffff166330815e56828585336040518563ffffffff1660e01b81526004016109399493929190611629565b600060405180830381600087803b15801561095357600080fd5b505af1158015610967573d6000803e3d6000fd5b5050505050505050505050565b6109818484848433610af5565b5050505050565b610990610a35565b80600160006101000a81548173ffffffffffffffffffffffffffffffffffffffff021916908373ffffffffffffffffffffffffffffffffffffffff1602179055508073ffffffffffffffffffffffffffffffffffffffff166109f0610700565b73ffffffffffffffffffffffffffffffffffffffff167f38d16b8cac22d99fc7c124b9cd0de2d3fa1faef420bfe791d8c362d765e2270060405160405180910390a350565b610a3d610aed565b73ffffffffffffffffffffffffffffffffffffffff16610a5b610700565b73ffffffffffffffffffffffffffffffffffffffff1614610aba57610a7e610aed565b6040517f118cdaa7000000000000000000000000000000000000000000000000000000008152600401610ab1919061114a565b60405180910390fd5b565b600160006101000a81549073ffffffffffffffffffffffffffffffffffffffff0219169055610aea81610d81565b50565b600033905090565b600080338585604051602001610b0d939291906116b6565b60405160208183030381529060405280519060200120604051602001610b33919061170e565b604051602081830303815290604052805190602001209050610ba360025482898980806020026020016040519081016040528093929190818152602001838360200280828437600081840152601f19601f82011690508083019250505050505050610e459092919063ffffffff16565b610bd9576040517fb05e92fa00000000000000000000000000000000000000000000000000000000815260040160405180910390fd5b6000610be63387876102ee565b905060008103610c22576040517fb8d485a500000000000000000000000000000000000000000000000000000000815260040160405180910390fd5b80600460003373ffffffffffffffffffffffffffffffffffffffff1673ffffffffffffffffffffffffffffffffffffffff1681526020019081526020016000206000886007811115610c7757610c76611433565b5b6007811115610c8957610c88611433565b5b81526020019081526020016000206000828254610ca69190611567565b925050819055507f000000000000000000000000000000000000000000000000000000000000000073ffffffffffffffffffffffffffffffffffffffff166340c10f1985836040518363ffffffff1660e01b8152600401610d0892919061159b565b600060405180830381600087803b158015610d2257600080fd5b505af1158015610d36573d6000803e3d6000fd5b505050507fc7798891864187665ac6dd119286e44ec13f014527aeeb2b8eb3fd413df931793382604051610d6b92919061159b565b60405180910390a1809250505095945050505050565b60008060009054906101000a900473ffffffffffffffffffffffffffffffffffffffff169050816000806101000a81548173ffffffffffffffffffffffffffffffffffffffff021916908373ffffffffffffffffffffffffffffffffffffffff1602179055508173ffffffffffffffffffffffffffffffffffffffff168173ffffffffffffffffffffffffffffffffffffffff167f8be0079c531659141344cd1fd0a4f28419497f9722a3daafe3b4186f6b6457e060405160405180910390a35050565b600082610e528584610e5c565b1490509392505050565b60008082905060005b8451811015610ea757610e9282868381518110610e8557610e84611729565b5b6020026020010151610eb2565b91508080610e9f90611758565b915050610e65565b508091505092915050565b6000818310610eca57610ec58284610edd565b610ed5565b610ed48383610edd565b5b905092915050565b600082600052816020526040600020905092915050565b6000819050919050565b610f0781610ef4565b82525050565b6000602082019050610f226000830184610efe565b92915050565b6000819050919050565b610f3b81610f28565b82525050565b6000602082019050610f566000830184610f32565b92915050565b600080fd5b600080fd5b600073ffffffffffffffffffffffffffffffffffffffff82169050919050565b6000610f9182610f66565b9050919050565b610fa181610f86565b8114610fac57600080fd5b50565b600081359050610fbe81610f98565b92915050565b60088110610fd157600080fd5b50565b600081359050610fe381610fc4565b92915050565b610ff281610f28565b8114610ffd57600080fd5b50565b60008135905061100f81610fe9565b92915050565b60008060006060848603121561102e5761102d610f5c565b5b600061103c86828701610faf565b935050602061104d86828701610fd4565b925050604061105e86828701611000565b9150509250925092565b61107181610ef4565b811461107c57600080fd5b50565b60008135905061108e81611068565b92915050565b6000602082840312156110aa576110a9610f5c565b5b60006110b88482850161107f565b91505092915050565b6000819050919050565b60006110e66110e16110dc84610f66565b6110c1565b610f66565b9050919050565b60006110f8826110cb565b9050919050565b600061110a826110ed565b9050919050565b61111a816110ff565b82525050565b60006020820190506111356000830184611111565b92915050565b61114481610f86565b82525050565b600060208201905061115f600083018461113b565b92915050565b6000611170826110ed565b9050919050565b61118081611165565b82525050565b600060208201905061119b6000830184611177565b92915050565b6000602082840312156111b7576111b6610f5c565b5b60006111c584828501610fd4565b91505092915050565b60006fffffffffffffffffffffffffffffffff82169050919050565b6111f3816111ce565b82525050565b600067ffffffffffffffff82169050919050565b611216816111f9565b82525050565b600060608201905061123160008301866111ea565b61123e602083018561120d565b61124b604083018461120d565b949350505050565b6000806040838503121561126a57611269610f5c565b5b600061127885828601610faf565b925050602061128985828601610fd4565b9150509250929050565b600080fd5b600080fd5b600080fd5b60008083601f8401126112b8576112b7611293565b5b8235905067ffffffffffffffff8111156112d5576112d4611298565b5b6020830191508360208202830111156112f1576112f061129d565b5b9250929050565b60008060008060008060a0878903121561131557611314610f5c565b5b600087013567ffffffffffffffff81111561133357611332610f61565b5b61133f89828a016112a2565b9650965050602061135289828a01610fd4565b945050604061136389828a01611000565b935050606061137489828a01611000565b925050608061138589828a01611000565b9150509295509295509295565b600080600080606085870312156113ac576113ab610f5c565b5b600085013567ffffffffffffffff8111156113ca576113c9610f61565b5b6113d6878288016112a2565b945094505060206113e987828801610fd4565b92505060406113fa87828801611000565b91505092959194509250565b60006020828403121561141c5761141b610f5c565b5b600061142a84828501610faf565b91505092915050565b7f4e487b7100000000000000000000000000000000000000000000000000000000600052602160045260246000fd5b7f4e487b7100000000000000000000000000000000000000000000000000000000600052601160045260246000fd5b600061149c82610f28565b91506114a783610f28565b92508282039050818111156114bf576114be611462565b5b92915050565b60006114d082610f28565b91506114db83610f28565b92508282026114e981610f28565b91508282048414831517611500576114ff611462565b5b5092915050565b7f4e487b7100000000000000000000000000000000000000000000000000000000600052601260045260246000fd5b600061154182610f28565b915061154c83610f28565b92508261155c5761155b611507565b5b828204905092915050565b600061157282610f28565b915061157d83610f28565b925082820190508082111561159557611594611462565b5b92915050565b60006040820190506115b0600083018561113b565b6115bd6020830184610f32565b9392505050565b60008115159050919050565b6115d9816115c4565b81146115e457600080fd5b50565b6000815190506115f6816115d0565b92915050565b60006020828403121561161257611611610f5c565b5b6000611620848285016115e7565b91505092915050565b600060808201905061163e6000830187610f32565b61164b6020830186610f32565b6116586040830185610f32565b611665606083018461113b565b95945050505050565b6008811061167f5761167e611433565b5b50565b60008190506116908261166e565b919050565b60006116a082611682565b9050919050565b6116b081611695565b82525050565b60006060820190506116cb600083018661113b565b6116d860208301856116a7565b6116e56040830184610f32565b949350505050565b6000819050919050565b61170861170382610ef4565b6116ed565b82525050565b600061171a82846116f7565b60208201915081905092915050565b7f4e487b7100000000000000000000000000000000000000000000000000000000600052603260045260246000fd5b600061176382610f28565b91507fffffffffffffffffffffffffffffffffffffffffffffffffffffffffffffffff820361179557611794611462565b5b60018201905091905056fea2646970667358221220545da00da73afc89c4fb25b4a329badb407d42859e5006d02b325491e6a8c16864736f6c63430008140033",
  "linkReferences": {},
  "deployedLinkReferences": {}
}